:020000040800F2
:10000000983600209901000835260008DF1E0008F8
:100010003126000869040008592A00080000000081
:1000200000000000000000000000000001010008C6
:10003000D50400080000000045010008C927000899
:10004000B3010008B3010008B3010008B3010008C0
:10005000B3010008B3010008B3010008B3010008B0
:10006000B3010008B3010008B301000899040008B7
:10007000B3010008B3010008B3010008B301000890
:10008000B3010008B3010008B3010008B301000880
:10009000B3010008B3010008B3010008B301000870
:1000A000B3010008B3010008B3010008B301000860
:1000B000B3010008B3010008B3010008B301000850
:1000C000B3010008B3010008B3010008B301000840
:1000D000B3010008B3010008B3010008B301000830
:1000E000B3010008B3010008B3010008DFF80CD029
:1000F00000F09CF8004800475D2E0008983600206C
:10010000224B19680868B0E8F00F80F30988BFF344
:100110006F8F4FF0000080F311884EF00D0E704786
:100120000000000006480068006880F3088862B696
:1001300061B6BFF34F8FBFF36F8F00DF00BF00BF0B
:1001400008ED00E0EFF30980BFF36F8F0F4B1A68E3
:1001500020E9F00F106008B54FF0BF0080F3118860
:10016000BFF34F8FBFF36F8F03F05CFA4FF00000C7
:1001700080F31188BDE8084019680868B0E8F00FFE
:1001800080F30988BFF36F8F704700BF1000002015
:10019000EFF3058070470000064880470648004797
:1001A000FEE7FEE7FEE7FEE7FEE7FEE7FEE7FEE727
:1001B000FEE7FEE761280008ED000008D2B201E08A
:1001C00000F8012B491EFBD270470022F6E710B55C
:1001D00013460A4604461946FFF7F0FF204610BDB5
:1001E0000246C9B200E0401C0378002BFBD102E0BC
:1001F00003788B4203D0401E9042F9D20020704712
:1002000030B50B46014600202022012409E021FAE6
:1002100002F59D4205D303FA02F5491B04FA02F5E3
:100220002844151EA2F10102F1DC30BD064C074D39
:1002300006E0E06840F0010394E8070098471034B6
:10024000AC42F6D3FFF756FF103B0008303B0008E6
:1002500070B5044600252068806800F0010018B3DE
:100260002068806820F001002168886000F0A6FE08
:10027000054613E000F0A2FE401B02280ED92068BC
:10028000806800F0010048B1A06A40F01000A06250
:10029000E06A40F00100E062012070BD20688068E3
:1002A00000F001000028E5D10020F6E770B5054612
:1002B0006C6AA06A00F05000E0B9A06A40F40070D7
:1002C000A0622068806800F46020B0F5602F0DD136
:1002D000207B58B9A06A20F48070A062A06A00F464
:1002E000805018B9A06A40F00100A062204600F0DA
:1002F000A5F903E0206A016B2846884770BD70B5F8
:1003000005466C6AA06A40F04000A062E06A40F0D6
:100310000400E062204600F093F970BD70B5044619
:10032000656A284600F08BF970BD000038B50446B8
:100330000025002000902068806800F0010078BB54
:100340002068806840F001002168886019480068D2
:100350001949B0FBF1F0009002E00098401E0090B7
:1003600000980028F9D100F029FE054619E000F0B8
:1003700025FE401B022814D92068806800F0010087
:1003800078B9A06A40F01000A062E06A40F0010075
:10039000E06200BF002084F8240000BF012038BDC7
:1003A00005E02068806800F001000028DFD0002010
:1003B000F5E700000C00002040420F001CB5154876
:1003C000042100238022CDE9001013A1154803F079
:1003D0008DF91548032100238022CDE9001013A1D7
:1003E000154803F083F91548022100238022CDE946
:1003F000001013A1154803F079F9154802210023D4
:100400008022CDE9001013A1164803F06FF903F024
:10041000CBF81CBD78000020706F7765725F746147
:10042000736B00003926000884000020436F6D5F65
:100430007461736B000000006D0400087C000020F4
:100440006B65795F7461736B00000000992D000883
:10045000800000206A6F79737469636B5F746173E5
:100460006B000000A92C000800BFFEE708B503F0F0
:10047000BBF900900CE001F015FF064801F040FFC9
:1004800001F0BAFE00BF0621684603F063F900BF21
:10049000F1E700007832002010B5024800F08CFA35
:1004A00010BD0000CC00002030B590F84050012471
:1004B000AC40C56B6C60046863604468102C04D168
:1004C0000468A2600468E16003E00468A160046855
:1004D000E26030BD704772B600BFFEE738B5024635
:1004E00000230020009000BF92F82400012801D1D1
:1004F000022038BD012082F8240000BF4868072888
:1005000012D21068406B0C79641E04EB84051F2422
:10051000AC40A0430D796D1E05EB85050C68AC4021
:1005200020431468606327E048680D2812D21068E1
:10053000006B0C79E41F04EB84051F24AC40A0433E
:100540000D79ED1F05EB85050C68AC402043146860
:10055000206311E01068C06A0C790D3C04EB84053F
:100560001F24AC40A0430D790D3D05EB85050C68BB
:10057000AC4020431468E06208680A2812D310686F
:10058000C0680C780A3C04EB44050724AC40A04347
:100590000D780A3D05EB45058C68AC402043146896
:1005A000E0600FE0106800690C7804EB4405072454
:1005B000AC40A0430D7805EB45058C68AC4020436A
:1005C000146820610868102802D00868112827D113
:1005D000174C1068A0421ED11068806800F400001B
:1005E000F0B91068806840F400001468A0600868E2
:1005F000102815D10F4800680F4CB0FBF4F000EB49
:1006000080004000009002E00098401E009000989A
:100610000028F9D104E0906A40F0200090620123A4
:1006200000BF002082F8240000BF184661E70000E8
:10063000002401400C00002040420F00704770472A
:10064000704700002DE9F0410446002700250026F0
:10065000A84614B90120BDE8F081A06810B1207D42
:1006600000B100BFA06A30B90020E06284F8240025
:10067000204600F089F82046FFF7EAFD0746A06A09
:1006800000F01000002873D1002F71D1A06A20F46F
:10069000885040F00200A062E16960680843217B55
:1006A00040EA41000643A068B0F5807F02D0A06810
:1006B000012802D14FF4807000E000200543207D26
:1006C000012811D1207B38B9A069401E4FF4006188
:1006D00041EA4030054307E0A06A40F02000A062F4
:1006E000E06A40F00100E0622068406820F4694060
:1006F00028432168486020688068214908403043C9
:1007000021688860A068B0F5807F02D0A0680128C9
:1007100002D14FF4807000E00020B0F5807F03D15B
:10072000208A401E4FEA00582068C06A20F47000FA
:1007300040EA08002168C8622068806811490840C2
:10074000B04208D10020E062A06A20F0020040F030
:100750000100A06211E0A06A20F0020040F0100049
:10076000A062E06A40F00100E062012705E0FFE7D7
:10077000A06A40F01000A062012738466BE7000035
:10078000FDF7E1FFFE0E1FFF10B586B00446002006
:1007900002900390049005902249206888423ED13F
:1007A00000BF2148806940F400701F4988610846F5
:1007B000806900F40070019000BF00BF00BF0846D0
:1007C000806940F0040088610846806900F00400F8
:1007D000019000BF00BF4E2002900320039002A9A9
:1007E000124800F04DFA1248124908600020486093
:1007F0000021104881608021C160490001618900A9
:100800004161202181610021C16100F0A3F908B19B
:10081000FFF761FE00BF07482062446200BF06B0D8
:1008200010BD0000002401400010024000080140FB
:1008300008000240CC0000202DE9F04104460D469E
:100840001646002757492068884203D05649206839
:10085000884205D15348001D006800F4702000E074
:10086000002000287ED100BF94F82400012802D186
:100870000220BDE8F081012084F8240000BF20465A
:10088000FFF754FD0746002F6DD1A06A40F60161C5
:10089000884340F48070A06243492068884209D1AF
:1008A0004048001D006800F4702008B9012002E0F3
:1008B000002000E0012078B1A06A20F48010A0623E
:1008C0002068406800F4806000B3A06A20F4005003
:1008D00040F48050A06219E0A06A40F48010A06249
:1008E00030492068884203D02F492068884205D1CA
:1008F0002C48001D006800F4806000E0002028B152
:10090000A06A20F4005040F48050A062A06A00F475
:10091000805020B1E06A20F00600E06201E0002093
:10092000E06200BF002084F8240000BF1F48216A55
:1009300088621F48216AC8621E48216A08636FF0F6
:100940000200216808602068806840F48070216897
:100950008860226802F14C0133462A46206A00F082
:100960002DF901E01AE014E02068806800F46020AE
:10097000B0F5602F06D12068806840F4A00021689F
:1009800088600CE02068806840F4801021688860EE
:1009900005E000BF002084F8240000E0012738466D
:1009A00067E700000024014000280140AD02000874
:1009B0001D030008FF02000870B50446E06B0568DF
:1009C0002068066894F840100420884028400028D9
:1009D00046D006F00400002842D02068006800F0ED
:1009E000200028B92068006820F004002168086011
:1009F00057492068884201D1042027E05449143126
:100A00002068884201D1402020E0514928312068E7
:100A1000884201D1001519E04D493C3120688842D7
:100A200002D14FF4804011E049495031206888429A
:100A300002D14FF4802009E04549643120688842A2
:100A400002D14FF4800001E04FF080604049083946
:100A50004860E06A00287AD02046E16A884776E05C
:100A600094F84010022088402840A0B306F002000D
:100A700088B32068006800F0200040B92068006852
:100A800020F00A0021680860012084F82100304924
:100A90002068884201D1022028E02D4914312068C5
:100AA000884201D1202021E029492831206888424C
:100AB00001D140151AE026493C312068884202D114
:100AC0004FF4005012E0224950312068884203D18F
:100AD0004FF400300AE017E01D4964312068884275
:100AE00002D14FF4001001E04FF0007018490839AE
:100AF000486000BF002084F8200000BFA06A30B327
:100B00002046A16A884722E094F8401008208840D7
:100B10002840E0B106F00800C8B12068006820F065
:100B20000E002168086094F8401001208840E16BB5
:100B300048600120A06384F8210000BF002084F8F1
:100B4000200000BF206B10B12046216B884770BD8C
:100B5000080002400146002209B901207047164BE7
:100B60000868C01A1423B0FBF3F080000864124830
:100B70000838C863022081F821000868026843F63B
:100B8000F0708243D1E901031843CB6818430B6925
:100B900018434B6918438B691843CB6918430243C8
:100BA0000868026000208863012081F8210000208D
:100BB00081F8200000BFD1E7080002402DE9F04194
:100BC00004460D4616461F464FF0000800BF94F835
:100BD0002000012802D10220BDE8F081012084F824
:100BE000200000BF94F8210001282CD1022084F8B5
:100BF00021000020A0632068006820F00100216827
:100C000008603B46324629462046FFF74DFCE06A25
:100C100030B12068006840F00E00216808600BE0E9
:100C20002068006820F004002168086020680068DF
:100C300040F00A00216808602068006840F0010068
:100C40002168086006E000BF002084F8200000BF93
:100C50004FF002084046BFE770B5044600F0AEF919
:100C600006462546681C10B104480078054400BFBC
:100C700000F0A4F9801BA842FAD370BD0800002040
:100C80002DE9F8470346002294466EE14FF0010833
:100C900008FA02F4D1F8008008EA0400A0427DD1ED
:100CA000DFF8DCA2D1F80480A8EB0A09D0453AD0DD
:100CB00014DCB8F1030F50D009DCB8F1000F31D0CB
:100CC000B8F1010F1CD0B8F1020F49D120E0B8F102
:100CD000110F18D0B8F1120F42D11EE0B9F5881FDC
:100CE00025D006DCB9F5803F20D0B9F5801F37D17B
:100CF0001AE0B9F5001F18D0B9F5041F30D117E07C
:100D0000D1F80CC02DE0D1F80C8008F1040C28E0DB
:100D1000D1F80C8008F1080C23E0D1F80C8008F120
:100D20000C0C1EE000BF00BF00BF00BF00BF00BF33
:100D3000D1F80880B8F1000F02D14FF0040C0BE09D
:100D4000D1F80880B8F1010F03D14FF0080C1C61F5
:100D500002E04FF0080C5C6103E04FF0000C00E093
:100D600000BF00BFFF2801D8984601E003F1040846
:100D70004646FF2802D84FEA820803E0A2F108089D
:100D80004FEA88084746D6F800804FF00F0909FA65
:100D900007F928EA09080CFA07F900E088E048EAB0
:100DA0000908C6F80080D1F8048008F08058B8F12E
:100DB000805F7DD100BFDFF8CC81D8F8188048F083
:100DC0000108DFF8C091C9F81880C846D8F8188023
:100DD00008F00108CDF8008000BF00BF4FEAB93825
:100DE0004FEA920958F829504FEA82784FEA187969
:100DF0004FF00F0808FA09F825EA0805DFF888819E
:100E0000434502D14FF0000816E0DFF880814345EA
:100E100002D14FF001080FE0DFF87481434502D1A1
:100E20004FF0020808E0DFF86C81434502D14FF033
:100E3000030801E04FF004084FEA82794FEA19797C
:100E400008FA09F848EA0505DFF84C814FEA9209EB
:100E500048F82950D1F8048008F48018B8F5801FAC
:100E60000AD1DFF83881D8F8008048EA0008DFF8B6
:100E70002C91C9F8008009E0DFF82081D8F80080C3
:100E800028EA0008DFF81491C9F80080D1F804803E
:100E900008F40018B8F5001F10D1DFF8008108F140
:100EA0000408D8F8008048EA0008DFF8F09000E075
:100EB0005AE009F10409C9F800800DE0DFF8DC8090
:100EC00008F10408D8F8008028EA0008DFF8CC9080
:100ED00009F10409C9F80080D1F8048008F4003849
:100EE000B8F5003F0ED1DFF8B480A8F10408D8F8B7
:100EF000008048EA0008DFF8A490A9F10409C9F8C5
:100F000000800DE0DFF89480A8F10408D8F8008094
:100F100028EA0008DFF88490A9F10409C9F80080E4
:100F2000D1F8048008F48038B8F5803F0ED1DFF89E
:100F30006C80A8F10808D8F8008048EA0008DFF8BB
:100F40005C90A9F10809C9F800800DE0DFF84C8039
:100F5000A8F10808D8F8008028EA0008DFF83C90DB
:100F6000A9F10809C9F80080521CD1F8008028FABC
:100F700002F8B8F1000F7FF489AEBDE8F8870000F1
:100F8000000011100010024000080140000C014058
:100F90000010014000140140080001400804014015
:100FA000024693680B400BB1012000E0002070471F
:100FB0000AB1016101E00B04036170470148006858
:100FC00070470000000000200348006803490978CA
:100FD0000844014908607047000000200800002014
:100FE00010B50848006840F010000649086003206A
:100FF00000F0A8F80F2000F007F800F02BF8002010
:1010000010BD00000020024070B504460E48007874
:101010004FF47A71B1FBF0F00C490968B1FBF0F5BF
:10102000284600F063FE08B1012070BD102C07D2E5
:1010300000222146501E00F047F80548046001E0F8
:101040000120F2E70020F0E7080000200C0000205B
:101050000400002008B500BF1148806940F001007D
:101060000F4988610846806900F00100009000BFC8
:1010700000BF00BF0846C06940F08050C861084604
:10108000C06900F08050009000BF00BF00BF05495C
:10109000486820F0E06040F00070486000BF08BD84
:1010A000001002400000014001460846002809DB0C
:1010B00000F01F0301229A4043099B0003F1E02343
:1010C000C3F8002100BF70472DE9F05F80460D4650
:1010D0001646002701F0D2FC074639462A46334619
:1010E00001F00700C0F1070ABAF1040F02D94FF06E
:1010F000040A01E0C0F1070AD14600F1040ABAF17E
:10110000070F02D24FF0000A01E0A0F1030AD44613
:101110004FF0010A0AFA09FAAAF1010A0AEA020AD8
:101120000AFA0CFA4FF0010B0BFA0CFBABF1010BB6
:101130000BEA030B4AEA0B042146404601F0A6FCE9
:10114000BDE8F09F00BF00F00702064B19684FF69C
:10115000FF031940044B0B4343EA0221014B196082
:1011600000BF70470CED00E00000FA05F8B504463A
:1011700000260025207800F0010000286BD0002711
:101180004348C06900F0805070B900BF4048C06952
:1011900040F080503E49C8610846C06900F0805068
:1011A000009000BF00BF01273A48006800F480703B
:1011B000B0B93848006840F4807036490860FFF7DD
:1011C000FDFE064606E0FFF7F9FE801B642801D904
:1011D0000320F8BD2F48006800F480700028F2D08A
:1011E0002B48006A00F440752DB3A08800F44070CD
:1011F000A84220D02648006A20F4407501202649E4
:101200000860002008602248056205F0010090B1E6
:10121000FFF7D4FE064608E0FFF7D0FE801B41F240
:101220008831884201D90320D3E71948006A00F0C9
:1012300002000028F0D01648006A20F4407061686F
:10124000084313490862012F04D10846C06920F001
:101250008050C86100BF207800F00200022807D14A
:101260000B48406820F44040A168084308494860A2
:10127000207800F01000102807D10548406820F4BD
:101280008000E1680843024948600020A1E70000AF
:1012900000100240007000404004424270B5044615
:1012A0000D460CB9012070BD5A48006800F00700D7
:1012B000A8420ED25748006820F00700284355493D
:1012C00008600846006800F00700A84201D001202D
:1012D000E9E7207800F0020002281DD1207800F014
:1012E0000400042805D14C48406840F4E0604A49B5
:1012F0004860207800F00800082805D1464840687A
:1013000040F46050444948604348406820F0F00091
:10131000A168084340494860207800F0010078B394
:101320006068012806D13C48006800F4003090B99C
:101330000120B8E76068022806D13748006800F04D
:10134000007040B90120AEE73348006800F00200A9
:1013500008B90120A7E73048406820F00300616821
:1013600008432D494860FFF729FE064609E0FFF7CC
:1013700025FE801B41F28831884202D9032092E782
:1013800007E02548406800F00C006168B0EB810F71
:10139000EDD12048006800F00700A8420ED91D4892
:1013A000006820F0070028431A49086008460068D2
:1013B00000F00700A84201D0012074E7207800F077
:1013C0000400042807D11448406820F4E060E16874
:1013D000084311494860207800F00800082808D127
:1013E0000D48406820F46050216940EAC1000A4974
:1013F000486000F03FF808494968C1F30311074A03
:10140000515CC8400649086006480068FFF7FCFDCB
:10141000002048E70020024000100240F23A000895
:101420000C00002004000020014800687047000004
:101430000C00002000B5FFF7F7FF04494968C1F32D
:101440000221034A515CC84000BD00000010024068
:10145000023B000800B5FFF7E7FF04494968C1F304
:10146000C221034A515CC84000BD00000010024088
:10147000023B000870B50021002200240023002058
:10148000134D696801F00C05F5B1042D02D0082D4B
:1014900019D101E00F4819E00F4DC1F38346AB5D50
:1014A00001F4803555B10A4D6D68C5F340450B4ECA
:1014B000725D084D5D43B5FBF2F402E0084D03FB9D
:1014C00005F4204602E000BF024800BF00BF70BD27
:1014D0000010024000127A00E03A0008F03A0008DA
:1014E00000093D00F8B504460CB90120F8BD20788C
:1014F00000F00100002878D0F848406800F00C00A7
:1015000004280CD0F548406800F00C00082811D1E0
:10151000F248406800F48030B0F5803F0AD1EF48CF
:10152000006800F4003000285FD0606800285CD1BB
:101530000120DBE700BF6068B0F5803F06D1E748D7
:10154000006840F48030E549086028E0606858B9D8
:10155000E248006820F48030E049086008460068EE
:1015600020F4802008601AE06068B0F5A02F0BD14D
:10157000DA48006840F48020D849086008460068CE
:1015800040F4803008600AE0D448006820F48030DD
:10159000D24908600846006820F48020086000BF37
:1015A000606888B1FFF70AFD054606E0FFF706FD13
:1015B000401B642801D9032098E7C848006800F45C
:1015C00000300028F2D010E0FFF7F8FC054606E0F6
:1015D000FFF7F4FC401B642801D9032086E7BF48CD
:1015E000006800F400300028F2D1207800F00200FA
:1015F000022857D1B948406800F00C0050B1B748F4
:10160000406800F00C00082818D1B448406800F485
:10161000803098B9B148006800F0020020B120691C
:10162000012801D0012061E7AC48006820F0F800F3
:10163000616940EAC100A949086033E02069E8B166
:101640000120A7490860FFF7B9FC054606E0FFF74F
:10165000B5FC401B022801D9032047E79F480068DA
:1016600000F002000028F2D09C48006820F0F8004A
:10167000616940EAC1009949086013E00020984977
:101680000860FFF79BFC054606E0FFF797FC401B50
:10169000022801D9032029E79048006800F00200E1
:1016A0000028F2D1207800F0080008282DD1A06988
:1016B000B8B101208B490860FFF780FC054606E0C1
:1016C000FFF77CFC401B022801D903200EE783486A
:1016D000406A00F002000028F2D0012000F0BCFFB8
:1016E00013E000207F490860FFF768FC054606E02C
:1016F000FFF764FC401B022801D90320F6E6774877
:10170000406A00F002000028F2D1207800F00400C6
:10171000042873D100277148C06900F0805070B967
:1017200000BF6E48C06940F080506C49C8610846EF
:10173000C06900F08050009000BF00BF01276A48D8
:10174000006800F48070B0B96748006840F48070A9
:1017500065490860FFF732FC054606E0FFF72EFCFE
:10176000401B642801D90320C0E65F48006800F4EC
:1017700080700028F2D000BFE068012806D15748E9
:10178000006A40F001005549086227E0E06858B956
:101790005248006A20F00100504908620846006A79
:1017A00020F00400086219E0E06805280BD14B48DE
:1017B000006A40F00400494908620846006A40F0A7
:1017C000010008620AE04548006A20F00100434930
:1017D00008620846006A20F00400086200BFE06862
:1017E000A0B1FFF7EBFB054609E0FFF7E7FB401B65
:1017F00041F28831884202D9032077E622E0374857
:10180000006A00F002000028EFD012E0FFF7D6FBDC
:10181000054608E0FFF7D2FB401B41F288318842C1
:1018200001D9032062E62D48006A00F0020000287A
:10183000F0D1012F05D12948C06920F080502749F7
:10184000C86100BFE069C8B32448406800F00C00DC
:10185000082860D0E069022848D1002020490866A5
:10186000FFF7ACFB054606E0FFF7A8FB401B02288C
:1018700001D903203AE61948006800F000700028FA
:10188000F2D1206AB0F5803F07D11448406820F4B7
:101890000030A168084311494860D4E908010843B1
:1018A0000E49496821F4741108430C49486001202D
:1018B0000B490866FFF782FB054607E03DE0FFF7AE
:1018C0007DFB401B022801D903200FE60348006876
:1018D00000F000700028F2D02FE00000001002405D
:1018E000000042428004424200700040002014493F
:1018F0000866FFF763FB054606E0FFF75FFB401B4A
:10190000022801D90320F1E50E48006800F00070BC
:101910000028F2D111E0E069012800D1E6E509488C
:10192000466806F48031206A814204D106F47011C1
:10193000606A814201D00120D8E50020D6E5000090
:10194000000042420010024010B504460CB90120CC
:1019500010BD606A38B96068B0F5827F00D105E0DB
:101960000021E16102E00021216161610021A162A9
:1019700094F8510028B9002084F85000204600F067
:1019800043F8022084F851002068006820F04000ED
:1019900021680860A08800F48270218901F4044164
:1019A0000843A18901F400610843217C01F0020190
:1019B0000843217D01F001010843218B01F40071EE
:1019C0000843217F01F0380108432021095D01F01F
:1019D00080010843218D01F400510843216808600B
:1019E0000421A06901EA1040216848602068C069AC
:1019F00020F400602168C86100206065012084F83F
:101A000051000020A4E7000010B586B00446002075
:101A100002900390049005901E492068884236D1B8
:101A200000BF1D48806940F480501B49886108460A
:101A3000806900F48050019000BF00BF00BF0846DD
:101A4000806940F0080088610846806900F008005D
:101A5000019000BF00BF28200290022003900320C5
:101A6000059002A90D48FFF70BF910200290002005
:101A70000390049002A90948FFF702F900BF084942
:101A8000486840F0E06040F00100486000BF06B0E8
:101A900010BD00000030014000100240000C014069
:101AA000000001402DE9FE4F04460F4690461D46BA
:101AB0000C9E01200190FFF781FA814694F851B005
:101AC00060680290AA46BBF1010F0BD00298B0F5F6
:101AD000827F04D1A06810B9BBF1040F02D00220AC
:101AE000BDE8FE8F1FB1B8F1000F00D00DB9012085
:101AF000F6E700BF94F85000012801D10220EFE77B
:101B0000012084F8500000BF94F85100042802D04E
:101B1000052084F8510000206065C4F83880E5870E
:101B2000A5872763E586A586206460642068006831
:101B300000F04000402805D02068006840F04000D8
:101B400021680860E068B0F5006F52D1606810B19C
:101B5000BAF1010F09D1206B00882168C860206BA1
:101B6000801C2063E08E401EE0863BE02068806899
:101B700000F00200022810D1E08E70B10198012817
:101B80000BD1206B00882168C860206B801C20630B
:101B9000E08E401EE086002001902068806800F002
:101BA000010068B1E08F58B12068C068A16B08805F
:101BB000A06B801CA063E08F401EE0870120019095
:101BC000FFF7FCF9A0EB0900B0420BD3701C48B141
:101BD000012084F8510000BF002084F8500000BFAD
:101BE00003207DE7E08E0028C0D1E08F0028BDD122
:101BF00052E0606810B1BAF1010F09D1206B007892
:101C000021680873206B401C2063E08E401EE08634
:101C10003CE02068806800F00200022810D1E08ECD
:101C200070B1019801280BD1206B007821680873EE
:101C3000206B401C2063E08E401EE0860020019057
:101C40002068806800F0010068B1E08F58B120681A
:101C5000C068A16B0870A06B401CA063E08F401EA1
:101C6000E08701200190FFF7A9F9A0EB0900B0423D
:101C700001D3701C00B94EB9012084F8510000BF97
:101C8000002084F8500000BF032029E7E08E0028E0
:101C9000BFD1E08F0028BCD14A463146204600F033
:101CA000EFFC40B12020606500BF002084F85000A8
:101CB00000BF012014E7A06850B900BF00200090C9
:101CC0002068C068009020688068009000BF00BF56
:101CD000012084F8510000BF002084F8500000BFAC
:101CE000606D08B10120FBE60020F9E670B50446FE
:101CF0002546681EB0F1807F01D301200FE0681EE9
:101D00004FF0E02148610F214FF0FF3000F0BEFEA0
:101D100000204FF0E021886107200861002070BD9D
:101D200010B504460CB9012010BDA06900B100E057
:101D300000BF94F8410028B9002084F840002046F4
:101D400000F02AF8242084F841002068C06820F4BC
:101D500000502168C860204600F0BAFD2068006984
:101D600020F49040216808612068406920F02A0032
:101D7000216848612068C06840F400502168C8604C
:101D800000206064202084F8410084F84200002094
:101D9000606300BFC8E7000010B586B004460020AD
:101DA00002900390049005901A49206888422ED131
:101DB00000BF1948806940F480401749886108468F
:101DC000806900F48040019000BF00BF00BF08465A
:101DD000806940F0040088610846806900F00400D2
:101DE000019000BF00BF481502900220039003201D
:101DF000059002A90948FEF743FF4FF48060029066
:101E000000200390049002A90448FEF739FF06B0B1
:101E100010BD0000003801400010024000080140E1
:101E20002DE9F84F04460E46174699464FF0000A32
:101E300094F84100202850D106B117B90120BDE81F
:101E4000F88F00206064212084F84100FFF7B6F885
:101E50008246A784E784A068B0F5805F04D120693A
:101E600010B90025B04602E035464FF000081EE0EC
:101E70005346002280212046CDF8009000F0A6FDB8
:101E800020B1202084F841000320D8E745B9B8F8F4
:101E90000000C0F308002168486008F1020803E070
:101EA0002878216848606D1CE08C401EE084E08C3E
:101EB0000028DDD15346002240212046CDF8009075
:101EC00000F084FD20B1202084F841000320B6E713
:101ED000202084F841000020B1E70220AFE700BFD6
:101EE000FEE7000010B500224FF400410548FFF75F
:101EF0005FF8642001F03EFB0122D1030148FFF7A7
:101F000057F810BD000C01400849098809B201804A
:101F10000649498809B241800449898809B281800B
:101F20000249C98809B2C180704700008E000020B4
:101F300010B5042202490348FEF77EFC10BD0000E4
:101F40008E0000209C00002070B54FF400615B48BB
:101F5000FFF726F8B0B9052001F00CFB4FF4006143
:101F60005648FFF71DF8002871D102E0012001F06A
:101F700001FB4FF400615148FFF712F80028F5D03B
:101F8000012070BD4FF480414C48FFF709F8B0B90B
:101F9000052001F0EFFA4FF480414848FFF700F8C0
:101FA0000028E1D102E0012001F0E4FA4FF4804181
:101FB0004248FEF7F5FF0028F5D00220E1E74FF494
:101FC00000513E48FEF7ECFFB0B9052001F0D2FA0F
:101FD0004FF400513948FEF7E3FF00286CD102E0CE
:101FE000012001F0C7FA4FF400513448FEF7D8FF42
:101FF0000028F5D00320C4E74FF480512F48FEF7A6
:10200000CFFFB0B9052001F0B5FA4FF480512B484D
:10201000FEF7C6FF00284FD102E0012001F0AAFA26
:102020004FF480512548FEF7BBFF0028F5D004206F
:10203000A7E704212148FEF7B3FFA0B9052001F06E
:1020400099FA04211D48FEF7ABFF00B903E033E025
:10205000012001F08FFA04211848FEF7A1FF0028A3
:10206000F6D005208DE74FF480611448FEF798FF05
:1020700010BB01F0B9FB0546052001F07BFA4FF4D7
:1020800080610E48FEF78CFFA8B900BF4FF4806155
:102090000A48FEF785FF0028F8D0012001F06AFA0F
:1020A00001F0A2FB0446601BB0F57A7F01D907203E
:1020B00067E7062065E700BF002062E7000C0140EB
:1020C00010B505220E49302000F06EF905220D49A9
:1020D000302000F069F905220949302000F0BEF8EF
:1020E000002109E00648405C064A525C904201D05B
:1020F000012010BD481CC1B20529F3DB0020F8E720
:10210000880000200A3B000870B5C820FEF7A4FD37
:1021100002E00A20FEF7A0FDFFF7D2FF0128F8D069
:1021200000F06AF85C211AA0FEF75AF828B15C2189
:1021300017A0FEF755F8401C00E015A005462F211A
:10214000FEF74EF888B15C2111A0FEF749F828B1DE
:102150005C210FA0FEF744F8401C00E00CA00546EF
:102160002F21FEF73DF8401C0BE05C2108A0FEF794
:1021700037F828B15C2106A0FEF732F8401C00E0D9
:1021800003A00446FC22214607A000F067FC70BDB6
:10219000496E746572666163655C696E745F53490C
:1021A000323452312E6300005B25733A25645D534F
:1021B000493234523120496E697420537563636526
:1021C00073730D0A0000000070B5044600224FF43E
:1021D00000410848FEF7ECFE204600F073FA0020AC
:1021E00000F070FA05460122D1030248FEF7E0FE36
:1021F000284670BD0008014010B500228021154816
:10220000FEF7D6FE052214492A2000F0CDF8012160
:10221000212000F0AFF80121222000F0ABF82821A6
:10222000252000F0A7F82021312000F0A3F80F218D
:10223000262000F09FF80F21202000F09BF870214D
:10224000272000F097F8012280210248FEF7B0FE17
:1022500010BD0000000C01400A3B00082DE9F041D0
:1022600007460D46164600224FF400410C48FEF783
:102270009FFE384600F026FA8046002405E0002044
:1022800000F020FA2855601CC4B2B442F7DB0122EA
:10229000D1030348FEF78CFE4046BDE8F081000004
:1022A0000008014010B5002280211348FEF780FE8F
:1022B00005221249302000F077F805220F492A2024
:1022C00000F072F80121212000F054F801212220B1
:1022D00000F050F80A21242000F04CF82821252095
:1022E00000F048F80621262000F044F80E212020B6
:1022F00000F040F810BD0000000C01400A3B00084F
:1023000070B50546002280211948FEF751FE2022B3
:102310002946A02000F048F8012280211448FEF749
:1023200047FE0720FFF750FF044606E00720FFF7AF
:102330004BFF0446012001F01DF904F0200018B9FC
:1023400004F010000028F1D02146272000F012F8F8
:1023500004F0100028B1FF21E12000F00BF801206B
:1023600070BD04F0200008B10020F9E70120F7E774
:10237000000C014070B505460C4600224FF40041A8
:102380000848FEF715FE284600F09CF90646204650
:1023900000F098F90122D1030248FEF709FE304609
:1023A00070BD0000000801402DE9F04107460C46D1
:1023B000154600224FF400410C48FEF7F9FD38465F
:1023C00000F080F98046002605E014F8010B00F0CB
:1023D00079F9701CC6B2AE42F7DB0122D103034883
:1023E000FEF7E6FD4046BDE8F08100000008014030
:1023F0000EB5002000900190029023482349086008
:1024000081152248816001210173002101754FF47B
:102410006021C16100201D49486004211B48016101
:10242000FEF710F908B1FEF756F801200090019070
:102430000220029069461548FEF750F808B1FEF7F1
:102440004AF8062000900220019069460F48FEF7E6
:1024500045F808B1FEF73FF80220009003200190F4
:1024600069460A48FEF73AF808B1FEF734F8032047
:1024700000900420019069460448FEF72FF808B147
:10248000FEF729F80EBD0000002401409C0000204A
:1024900008B500BF0A48406940F00100084948619A
:1024A0000846406900F00100009000BF00BF002214
:1024B00011460B20FEF708FE0B20FEF7F5FD08BDC8
:1024C0000010024000B585B00020019002900390FA
:1024D000049000BF3448806940F0100032498861A0
:1024E0000846806900F01000009000BF00BF00BFE8
:1024F0000846806940F0200088610846806900F045
:102500002000009000BF00BF00BF0846806940F077
:10251000040088610846806900F00400009000BF54
:1025200000BF00BF0846806940F008008861084687
:10253000806900F00800009000BF00BF0122D103B5
:102540001A48FEF735FD0122D1031948FEF730FD88
:10255000002280211548FEF72BFD47F6044001902C
:10256000002002900120039001A91048FEF788FB8B
:1025700048F2800001900120029000200390022088
:10258000049001A90948FEF77BFB4FF4004001903D
:1025900001200290002003900220049001A9044829
:1025A000FEF76EFB05B000BD00100240000C0140BC
:1025B0000008014010B50E480E4908604FF48270C3
:1025C000486000210B488160C160016141614FF4A6
:1025D000007181611021C16100210162416281624B
:1025E0000A21C162FFF7B0F908B1FDF774FF10BD11
:1025F000003001401001002010B50B480B49086065
:102600004FF4E1304860002108488160C1600161F9
:102610000C21416100218161C161FFF781FB08B19B
:10262000FDF759FF10BD000000380140680100208F
:1026300000BFFEE700BFFEE708B501F0D5F8009047
:1026400008E000BF42F21071684601F083F800BF55
:10265000FFF748FCF5E7000008B508490968C90814
:102660004FF47A72B1FBF2F14143009100BF00BF19
:1026700000994A1E00920029F9D108BD0C000020E3
:10268000F8B504460E46154633460122022120467F
:10269000009500F02DF828B1606D40F020006065D5
:1026A0000320F8BD3346002280212046009500F02B
:1026B0001FF828B1606D40F0200060650320F0E74E
:1026C0000020EEE701B582B0002001904FF47A704F
:1026D000012301AA02A900900448FFF7E3F908B119
:1026E00000200EBD9DF80400FBE700001001002053
:1026F0002DE9F84F04460D4690461E46DDF8289019
:10270000FEF75CFCA0EB0900371AFEF757FC824687
:102710002C480068C0F3CB307843009045E0701C33
:10272000002842D0FEF74AFCA0EB0A00B84200D2D3
:10273000A7BB2068406820F0E0002168486060681E
:10274000B0F5827F0DD1A068B0F5004F03D0A0682E
:10275000B0F5806F05D12068006820F04000216846
:102760000860A06AB0F5005F0DD100BF2068006866
:1027700020F40050216808602068006840F4005090
:102780002168086000BF012084F8510000BF0020CC
:1027900084F8500000BF0320BDE8F88FFFE70098E1
:1027A00000B900270098401E0090206880682840EB
:1027B000A84201D1012000E000204045AFD1002017
:1027C000EAE700000C00002010B500F0FDFF012832
:1027D00001D000F071FFFEF7F7FB10BD00B593B01C
:1027E000282109A8FDF7F1FC142104A8FDF7EDFC50
:1027F00000200090019002900390012009900004B5
:102800000A9000200B9001200D9002201090C1032F
:1028100011914FF4E011129109A8FEF763FE08B17F
:10282000FDF759FE0F20049002200590002006902D
:102830004FF48060079000200890022104A8FEF762
:102840002DFD08B1FDF747FE0220009080030290A5
:102850006846FEF78BFC08B1FDF73DFE13B000BDE6
:10286000704700BF00BF02680C3252E8002F22F40C
:10287000907102680C3242E80013002BF3D100BFC4
:1028800000BF00BF0268143252E8002F22F001019D
:102890000268143242E80013002BF3D100BF016B31
:1028A00001290ED100BF00BF02680C3252E8002F90
:1028B00022F0100102680C3242E80013002BF3D121
:1028C00000BF202180F84210002101637047000002
:1028D00070B504462168096921F44051E26811434A
:1028E000226811612269A1681143626941EA020507
:1028F0002168C96841F20C62914329432268D16082
:102900002168496921F44071A2691143226851612B
:102910002D4A2168914202D1FEF79CFD01E0FEF7AD
:1029200089FD00EBC00101EB001162689200B1FB70
:10293000F2F100EBC00202EB001263689B00B2FBF5
:10294000F3F26423B2FBF3F202EBC20303EB0212D5
:10295000A1EB8201322202EB01116422B1FBF2F100
:1029600001F0F00100EBC00202EB001263689B0073
:10297000B2FBF3F26423B2FBF3F201EB021200EBC1
:10298000C00101EB001163689B00B1FBF3F100EBA8
:10299000C00303EB00136668B600B3FBF6F36426CE
:1029A000B3FBF6F303EBC30606EB0313A1EB8301C2
:1029B000322303EB01116423B1FBF3F101F00F01AA
:1029C00011442268916070BD003801402DE9F84340
:1029D00004460D4617469846089E31E0701C70B3B9
:1029E000FEF7ECFAA0EB0800B04200D816B90320BD
:1029F000BDE8F8832068C06800F00400F8B1802DBD
:102A00001ED0402D1CD020680068C0F3C000B0B1BB
:102A100000BF002000902068006800902068406897
:102A2000009000BF00BF2046FFF71BFF0820606436
:102A300000BF002084F8400000BF0120D8E7FFE776
:102A4000206800682840A84201D1012000E0002051
:102A5000B842C3D00020CBE700BFFEE70FB4054B60
:102A600010B503A9044A029800F034F810BC5DF8D0
:102A700014FB00008D2C000898000020024800681C
:102A8000C0F30220704700000CED00E010B50028F4
:102A900004DB0A07130E054A135406E00A07140E56
:102AA000034A00F00F031B1FD45410BD00E400E0E4
:102AB00018ED00E002E008C8121F08C1002AFAD190
:102AC00070477047002001E001C1121F002AFBD1AE
:102AD000704700002DE9FF4F8BB09A460F46054620
:102AE000002606E025280BD052460D9990476D1C14
:102AF000761C28780028F5D10FB03046BDE8F08F5D
:102B00000024A0460122604900E0044315F8013F7B
:102B1000203B02FA03F00842F7D128782E2817D17B
:102B200015F8010F44F004042A280ED06FF02F028C
:102B30002878A0F1300109290AD808EB880102EBB6
:102B4000410100EB01086D1CF2E757F8048B6D1C86
:102B5000287869283ED006DC0028CDD063280BD029
:102B6000642804D136E0732810D075284BD0524623
:102B70000D999047761C85E017F8040B8DF800003E
:102B800000208DF80100E946012003E057F8049B7E
:102B90004FF0FF3061074FF0000401D40AE0641CDD
:102BA00044450DDA8442FADB19F804100029F6D105
:102BB00006E0641C8442FCDB19F804100029F8D1FB
:102BC000264404E019F8010B52460D999047641E03
:102BD000F8D257E001CF4FF00A0B002802DA40424A
:102BE0002D2102E0210504D52B218DF8241001218F
:102BF00003E0E10705D02021F7E70DF12009089156
:102C00000CE00021F9E701CF4FF00A0BF9E7594634
:102C1000FDF7F6FA01F1300209F8012D0028F6D18E
:102C2000ADEB090000F1200B600701D44FF0010863
:102C3000D84502DDA8EB0B0000E000208046002410
:102C400006E009A85246005D0D999047641C761C69
:102C500008988442F5DB04E0302052460D999047F5
:102C6000761CB8F10001A8F10108F5DC05E019F8BF
:102C7000010B52460D999047761CBBF10001ABF158
:102C8000010BF4DC6D1C34E70928010013B50C4678
:102C90004FF6FF73012269460248FFF7C1F800981A
:102CA0001CBD0000680100201FB500F09DFD0390D1
:102CB000FFF73EF94DE02748FFF726F95C2126A0F3
:102CC000FDF78EFA28B15C2123A0FDF789FA401C9C
:102CD00000E021A005462F21FDF782FA002811D03F
:102CE0005C211DA0FDF77CFA28B15C211AA0FDF73C
:102CF00077FA401C00E018A005462F21FDF770FA76
:102D0000401C0BE05C2114A0FDF76AFA28B15C219D
:102D100011A0FDF765FA401C00E00FA004460D4825
:102D2000B0F906000B49B1F904100A4AB2F90220C1
:102D3000CDE9002102900748B0F900307B222146FE
:102D40000DA0FFF78BFE00BF142103A800F002FDC9
:102D500000BFB0E7700000204170706C696361745F
:102D6000696F6E5C4170705F4672656552544F5377
:102D70005F5461736B2E63005B25733A25645D6A53
:102D80006F79737469636B3D25642C25642C25640D
:102D90002C25640A0000000008B500F025FD009015
:102DA00042E0FFF7D1F80446002C36D05C211FA08A
:102DB000FDF716FA28B15C211CA0FDF711FA401CA2
:102DC00000E01AA006462F21FDF70AFA002811D0CC
:102DD0005C2116A0FDF704FA28B15C2113A0FDF7D1
:102DE000FFF9401C00E011A006462F21FDF7F8F97D
:102DF000401C0BE05C210DA0FDF7F2F928B15C212D
:102E00000AA0FDF7EDF9401C00E008A005462346A6
:102E1000682229460DA0FFF721FE00BF1421684655
:102E200000F098FC00BF00BFBBE700004170706C71
:102E300069636174696F6E5C4170705F467265654D
:102E400052544F535F5461736B2E63005B25733A8A
:102E500025645D6B65793D25640A0000FFF754F930
:102E6000FDF7ACFAFEF7BCF8FFF7B8FCFFF72AFB5A
:102E7000FFF70EFBFFF7C0FBFFF79CFBFFF7B8FA6D
:102E80005C211BA0FDF7ACF928B15C2118A0FDF76F
:102E9000A7F9401C00E016A005462F21FDF7A0F978
:102EA00088B15C2112A0FDF79BF928B15C2110A02C
:102EB000FDF796F9401C00E00DA005462F21FDF717
:102EC0008FF9401C0BE05C2109A0FDF789F928B1BE
:102ED0005C2107A0FDF784F9401C00E004A0044633
:102EE0006922214607A0FFF7B9FD00BFFEE70000F9
:102EF0002E2E2F436F72652F5372632F6D61696E93
:102F00002E6300005B25733A25645D48656C6C6F29
:102F10002052656D6F7465210A0000002DE9F041B3
:102F200005460E462648076826480068001D00F042
:102F30008FFA50B92348006890F82C10012088407F
:102F400021490968814320480160681CD8B9D6B17D
:102F50001E4948681B49096888601A4982680968DF
:102F6000CA6018490968091D8268516015490968D5
:102F7000091D8160154A134909684A6111460968AB
:102F8000491C11601AE07C190E4800684460BC427C
:102F900007D20C480168091D0D48006800F07CFA52
:102FA0000CE008480168091D0A48006800F074FA3E
:102FB00009480068844201D207480460BDE8F081F6
:102FC00024000020100000202800002064020020BF
:102FD00018000020140000204000002010B5044616
:102FE00000F074FA2F480068401C2E4908602E48F3
:102FF000006840B92C4804600846006801280DD1DB
:1030000000F016F90AE02948006838B92648006837
:10301000C06AE16A884201D82348046024480068F5
:10302000401C2349086094F82C1001208840214955
:10303000096808431F490860E16A01EB81011E4AE3
:1030400002EB81014868A0608268E260211D82680D
:1030500051608160E16A01EB8101174A02EB810254
:103060006261E16A01EB8101134A52F82110491CA7
:10307000E26A02EB8202104B43F8221000F038FAA9
:103080000A48006868B108480068C06AE16A884276
:1030900007D24FF0805009490860BFF34F8FBFF34C
:1030A0006F8F10BD20000020100000202C00002099
:1030B0003C00002028000020B001002004ED00E0CA
:1030C00010B516E000F002FA0C48C068C468201D74
:1030D00000F0BEF90A480068401E09490860094826
:1030E0000068401E0749086000F002FA204600F020
:1030F0000BF8044800680028E4D110BD50020020FD
:10310000200000201C00002010B50446206B00F0B9
:10311000FFF9204600F0FCF910BD000030B54FF477
:103120004053154800F007042CB1C01D20F00700E3
:10313000114C041B1B1B0246104C226000240F4D37
:103140006C60D018083820F007000D4C2060002477
:103150000B4D2D686C600A4D2D682C601146441A89
:103160004C60074C24680C60064D4C682C60064D82
:103170004C682C6030BD0000780200205000002018
:1031800058000020600000205C00002000BFFFF716
:1031900097FF064800680128F9D94FF0805004498C
:1031A0000860BFF34F8FBFF36F8FF0E7B0010020CF
:1031B00004ED00E02DE9FF5F80460E469146DDE913
:1031C0000E7A109CA9F10100216B01EB800B2BF012
:1031D000070B7EB1002507E0715D04F13400415515
:1031E000705D00B902E06D1C102DF5D300BF002109
:1031F00043200155052F00D30427E762201D00F06E
:1032000048F904F1180000F044F92461C7F1050001
:10321000A061646241465846039A00F007F92060B5
:10322000BAF1000F01D0CAF80040BDE8FF9F0000CE
:1032300010B5002407E004EB84010F4A02EB810083
:1032400000F01AF9641C052CF5D30C4800F014F9B1
:103250000B4800F011F90B4800F00EF90A4800F095
:103260000BF90A4800F008F90448094908600448C5
:103270000849086010BD0000B001002014020020C1
:10328000280200203C02002050020020640200209E
:10329000140000201800002010B50146164800E078
:1032A000006803688B42FBD30246436813448B4299
:1032B00004D143684C682344436001460A464B6886
:1032C00013440468A34211D10C4C03682468A34240
:1032D00008D04B680468646823444B6003681B682B
:1032E0000B6005E0054B1B680B6001E003680B6099
:1032F000884200D0016010BD50000020580000201E
:1033000009480068006808B9012000E0002020B1E9
:103310004FF0FF300549086005E003480068C068C9
:103320000068024908607047140000204000002037
:1033300000BFBF2080F31188BFF34F8FBFF36F8FA3
:1033400000BF00BFFEE700002DE9F04705464FF043
:10335000000900F05FF93048006808B9FFF7DEFEA9
:1033600075B105F00700C0F11008C8F1FF30A842A0
:1033700001D2012000E0002008B9454400E000250A
:10338000012000EBE570002841D0002D3FD02348FC
:10339000006885423BD8224E3046046801E026464C
:1033A00024686068A84202D220680028F7D11A4831
:1033B000006884422BD0306800F108092068306032
:1033C0006068401B102807D967196068401B786047
:1033D00065603846FFF760FF104960680968081AA1
:1033E0000E490860084600680E490968884203D201
:1033F0000A4800680B490860606840F0004060605F
:103400000020206008480068401C0749086000F060
:10341000B9FA4846BDE8F087580000205C0000205B
:10342000500000206000002064000020001F4FF0CA
:1034300080730360001F21F001030360001F034B32
:1034400003601438026020387047000031330008F0
:1034500001460A69D1E901309860D1E90103586059
:103460005068884201D18868506000200861106867
:10347000401E10601068704700F1080141604FF075
:10348000FF31816000F10801C1600161002101602C
:10349000704700210161704710B502460B685C1C43
:1034A0000CB9106907E002F1080000E040684468C8
:1034B00024689C42FAD944684C604C68A1608860DA
:1034C00041600A611468641C146010BD00BFBF2015
:1034D00080F31188BFF34F8FBFF36F8F00BF034896
:1034E0000068401C01490860704700006C00002023
:1034F00006480068401E054908600846006820B973
:10350000002080F3118800BF00BF70476C000020CE
:1035100070B506463546E6B1083D2C466068C00FDA
:10352000B8B12068A8B9606820F00040606000F081
:1035300071F808496068096808440649086020462F
:10354000FFF7AAFE04480068401C0349086000F029
:1035500019FA70BD5C0000206800002000204FF0C8
:10356000E0210861886102484861072008617047CE
:103570003F19010070B50446002544B100F04AF837
:1035800000212046FFF7CAFC00F0FCF905463DB9D2
:103590004FF0805003490860BFF34F8FBFF36F8F28
:1035A00070BD000004ED00E01CB5124800210B4680
:1035B0008022CDE9001010A1114800F097F80446D0
:1035C000012C14D100BFBF2080F31188BFF34F8FAF
:1035D000BFF36F8F00BF4FF0FF300A490860012032
:1035E0000949086000200949086000F04BF80848C4
:1035F00000681CBD4400002049444C450000000008
:103600008D310008400000202C0000202400002004
:103610004800002002480068401C014908607047CB
:103620004C0000201248006818B1012011490860C0
:103630001DE000200F4908600F480068B0FA80F0D4
:10364000C0F11F0101EB81020C4B03EB82004268C9
:103650005268426000F108024368934202D1426816
:10366000526842604268D268054B1A6000BF7047DA
:103670004C0000203400002028000020B001002071
:103680001000002010B50A48006840F47F00084987
:1036900008600846006840F07F400860FFF75EFF62
:1036A000002004490860FCF73DFD002010BD00002B
:1036B00020ED00E06C00002010B500BFBF2080F3BB
:1036C0001188BFF34F8FBFF36F8F00BF00F092F8E8
:1036D00018B14FF080500449086000BF002080F30B
:1036E000118800BF10BD000004ED00E02DE9FF4F80
:1036F00085B0804689461746DDE912ABB800FFF772
:1037000023FE064676B14C20FFF71EFE04462CB180
:103710004C212046FCF759FD266304E03046FFF7B4
:10372000F7FE00E000247CB10020CDE900ABCDE93C
:1037300002403A4649464046089BFFF73BFD20467B
:10374000FFF74CFC012501E04FF0FF35284609B09A
:10375000BDE8F08F2DE9F047044688464FF0000998
:10376000FFF758FF16480668206800EB0805206838
:10377000B04207D92068A8420BD9B54209D94FF009
:10378000010906E02068A84201D8B54201D94FF0EE
:1037900001092560B9F1000F03D0A81B0021FFF734
:1037A000BDFB00F0EFF807463FB94FF080500549E8
:1037B0000860BFF34F8FBFF36F8F4846BDE8F087B7
:1037C0002400002004ED00E00549096809B9012042
:1037D00005E00449096809B9022000E000207047AB
:1037E0002C0000204C0000200149086870470000B0
:1037F000240000202DE9F0410027574800680028E8
:103800007ED156480068451C544805608DB954481F
:10381000D0F8008053480068514908605148C0F80A
:10382000008051480068401C4F490860FFF768FD60
:1038300000BF4E480068854276D300BF4848006804
:10384000006808B9012000E0002020B14FF0FF30EF
:103850004649086067E042480068C068C468666816
:10386000B54202D2414806605DE06069D4E90212C7
:103870008A60D4E902214A60211D42688A4201D14E
:10388000E1684160002262610168491E0160A06A2E
:1038900098B1A06AD4E907128A60D4E907214A6086
:1038A00004F1180142688A4201D1216A4160002274
:1038B000A2620168491E016000BF94F82C1001202B
:1038C00088402B490968084329490860E16A01EBEF
:1038D0008101284A02EB81014868A0608268E260A9
:1038E000211D826851608160E16A01EB8101214AFA
:1038F00002EB81026261E16A01EB81011D4A00E095
:1039000022E052F82110491CE26A02EB8202194BB4
:1039100043F822101849E06A0968C96A88428DD9BB
:1039200001278BE700E000BF13480068C06A00EB86
:103930008000104951F82000012800D901270F48C4
:10394000006800B1012704E00D480068401C0C49E4
:1039500008603846BDE8F0814C00002024000020BB
:103960001400002018000020380000204000002033
:1039700028000020B00100201000002034000020AA
:103980003000002070B500240026FFF79FFD4B4853
:103990000068401E494908600846006800287DD13B
:1039A00047480068002879D05BE04648C068C46892
:1039B000A06AD4E907128A60D4E907214A6004F1B9
:1039C000180142688A4201D1216A41600022A26244
:1039D0000168491E01606069D4E902128A60D4E975
:1039E00002214A60211D42688A4201D1E16841609A
:1039F000002262610168491E016094F82C100120C8
:103A000088403149096808432F490860E16A01EBA1
:103A100081012E4A02EB81014868A0608268E26061
:103A2000211D826851608160E16A01EB8101274AB2
:103A300002EB81026261E16A01EB8101234A52F8E3
:103A40002110491CE26A02EB8202204B43F822104B
:103A50001F49E06A0968C96A884202D301201D49EA
:103A600008601848006808B9012000E0002000281C
:103A70009BD00CB1FFF744FC1748056865B100BF47
:103A8000FFF7B8FE10B10120124908606D1E002D2D
:103A9000F6D10020104908600E4800E009E00068F7
:103AA00038B1012630070D490860BFF34F8FBFF3CF
:103AB0006F8FFFF71DFD304670BD00004C000020E9
:103AC000200000203C02002028000020B00100203F
:103AD00010000020340000203000002004ED00E041
:103AE00002030405060708090A0B0C0D0E0F10103F
:103AF00001020000000000000000010203040607AC
:103B0000080900000000010203040A01070E010079
:103B1000303B0008000000209C000000B42A000890
:103B2000CC3B00089C000020FC350000C42A0008A3
:103B300000000000100000000100000000127A00E8
:103B40000000000000000000000000000000000075
:103B50000000000000000000000000000000000065
:103B60000000000000000000000000000000000055
:103B70000000000000000000040000000000000041
:103B80000000000000000000000000000000000035
:103B9000000000000000000000000000AAAAAAAA7D
:103BA0000000000000000000000000000000000015
:103BB0000000000000000000000000000000000005
:0C3BC000000000000000000000000000F9
:04000005080000ED02
:00000001FF
